{
  "contractName": "ManagerContract",
  "abi": [
    {
      "constant": true,
      "inputs": [],
      "name": "currentState",
      "outputs": [
        {
          "name": "",
          "type": "uint8"
        }
      ],
      "payable": false,
      "stateMutability": "view",
      "type": "function"
    },
    {
      "constant": false,
      "inputs": [],
      "name": "pay",
      "outputs": [],
      "payable": false,
      "stateMutability": "nonpayable",
      "type": "function"
    },
    {
      "constant": false,
      "inputs": [
        {
          "name": "myid",
          "type": "bytes32"
        },
        {
          "name": "result",
          "type": "int256"
        }
      ],
      "name": "callback",
      "outputs": [],
      "payable": false,
      "stateMutability": "nonpayable",
      "type": "function"
    },
    {
      "constant": true,
      "inputs": [],
      "name": "getCurrentState",
      "outputs": [
        {
          "name": "",
          "type": "uint8"
        }
      ],
      "payable": false,
      "stateMutability": "view",
      "type": "function"
    },
    {
      "constant": true,
      "inputs": [],
      "name": "player",
      "outputs": [
        {
          "name": "owner",
          "type": "address"
        },
        {
          "name": "name",
          "type": "string"
        },
        {
          "name": "salary",
          "type": "uint256"
        }
      ],
      "payable": false,
      "stateMutability": "view",
      "type": "function"
    },
    {
      "constant": false,
      "inputs": [],
      "name": "updateStatus",
      "outputs": [],
      "payable": true,
      "stateMutability": "payable",
      "type": "function"
    },
    {
      "constant": false,
      "inputs": [],
      "name": "closeContract",
      "outputs": [],
      "payable": false,
      "stateMutability": "nonpayable",
      "type": "function"
    },
    {
      "constant": false,
      "inputs": [],
      "name": "signContractWithManager",
      "outputs": [],
      "payable": false,
      "stateMutability": "nonpayable",
      "type": "function"
    },
    {
      "constant": true,
      "inputs": [],
      "name": "owner",
      "outputs": [
        {
          "name": "",
          "type": "address"
        }
      ],
      "payable": false,
      "stateMutability": "view",
      "type": "function"
    },
    {
      "constant": false,
      "inputs": [
        {
          "name": "_delay",
          "type": "uint256"
        }
      ],
      "name": "queueDelayedPay",
      "outputs": [],
      "payable": true,
      "stateMutability": "payable",
      "type": "function"
    },
    {
      "constant": false,
      "inputs": [
        {
          "name": "_owner",
          "type": "address"
        },
        {
          "name": "_name",
          "type": "string"
        },
        {
          "name": "_salary",
          "type": "uint256"
        }
      ],
      "name": "signContractWithPlayer",
      "outputs": [],
      "payable": false,
      "stateMutability": "nonpayable",
      "type": "function"
    },
    {
      "constant": true,
      "inputs": [],
      "name": "currentStatus",
      "outputs": [
        {
          "name": "",
          "type": "uint8"
        }
      ],
      "payable": false,
      "stateMutability": "view",
      "type": "function"
    },
    {
      "inputs": [],
      "payable": false,
      "stateMutability": "nonpayable",
      "type": "constructor"
    },
    {
      "payable": true,
      "stateMutability": "payable",
      "type": "fallback"
    },
    {
      "anonymous": false,
      "inputs": [
        {
          "indexed": false,
          "name": "msg",
          "type": "string"
        },
        {
          "indexed": false,
          "name": "salary",
          "type": "uint256"
        }
      ],
      "name": "contractSigned",
      "type": "event"
    },
    {
      "anonymous": false,
      "inputs": [
        {
          "indexed": false,
          "name": "funds",
          "type": "uint256"
        },
        {
          "indexed": false,
          "name": "balance",
          "type": "uint256"
        }
      ],
      "name": "fundsTransfered",
      "type": "event"
    },
    {
      "anonymous": false,
      "inputs": [],
      "name": "contractPaid",
      "type": "event"
    },
    {
      "anonymous": false,
      "inputs": [
        {
          "indexed": false,
          "name": "msg",
          "type": "string"
        }
      ],
      "name": "contractNotPaid",
      "type": "event"
    },
    {
      "anonymous": false,
      "inputs": [
        {
          "indexed": false,
          "name": "description",
          "type": "string"
        }
      ],
      "name": "newQuery",
      "type": "event"
    },
    {
      "anonymous": false,
      "inputs": [
        {
          "indexed": false,
          "name": "status",
          "type": "string"
        }
      ],
      "name": "newStatus",
      "type": "event"
    }
  ],
  "bytecode": "0x60606040526000600460006101000a81548160ff0219169083600281111561002357fe5b0217905550341561003357600080fd5b336000806101000a81548173ffffffffffffffffffffffffffffffffffffffff021916908373ffffffffffffffffffffffffffffffffffffffff1602179055506000600460016101000a81548160ff0219169083600481111561009257fe5b021790555061107f806100a66000396000f3006060604052600436106100ba576000357c0100000000000000000000000000000000000000000000000000000000900463ffffffff1680630c3f6acf146101445780631b9265b81461017b578063213bffb414610190578063378aa701146101c057806348db5f89146101f75780635f60f485146102dc578063610be654146102e657806386b2a8f4146102fb5780638da5cb5b14610310578063a484a1da14610365578063ae799c6c1461037d578063ef8a923514610402575b6004808111156100c657fe5b600460019054906101000a900460ff1660048111156100e157fe5b14156100ec57600080fd5b7f6bf3c11b1865ee883abfd55375e8d23df7328b7e77de345eace36be136a6b62d343073ffffffffffffffffffffffffffffffffffffffff1631604051808381526020018281526020019250505060405180910390a1005b341561014f57600080fd5b610157610439565b6040518082600481111561016757fe5b60ff16815260200191505060405180910390f35b341561018657600080fd5b61018e61044c565b005b341561019b57600080fd5b6101be6004808035600019169060200190919080359060200190919050506107b2565b005b34156101cb57600080fd5b6101d36109a5565b604051808260048111156101e357fe5b60ff16815260200191505060405180910390f35b341561020257600080fd5b61020a6109bc565b604051808473ffffffffffffffffffffffffffffffffffffffff1673ffffffffffffffffffffffffffffffffffffffff168152602001806020018381526020018281038252848181546001816001161561010002031660029004815260200191508054600181600116156101000203166002900480156102cb5780601f106102a0576101008083540402835291602001916102cb565b820191906000526020600020905b8154815290600101906020018083116102ae57829003601f168201915b505094505050505060405180910390f35b6102e46109f3565b005b34156102f157600080fd5b6102f9610af1565b005b341561030657600080fd5b61030e610bee565b005b341561031b57600080fd5b610323610ca0565b604051808273ffffffffffffffffffffffffffffffffffffffff1673ffffffffffffffffffffffffffffffffffffffff16815260200191505060405180910390f35b61037b6004808035906020019091905050610cc5565b005b341561038857600080fd5b610400600480803573ffffffffffffffffffffffffffffffffffffffff1690602001909190803590602001908201803590602001908080601f01602080910402602001604051908101604052809392919081815260200183838082843782019150505050505091908035906020019091905050610dd4565b005b341561040d57600080fd5b610415610f9b565b6040518082600281111561042557fe5b60ff16815260200191505060405180910390f35b600460019054906101000a900460ff1681565b600380600481111561045a57fe5b600460019054906101000a900460ff16600481111561047557fe5b14151561048157600080fd5b6000600281111561048e57fe5b600460009054906101000a900460ff1660028111156104a957fe5b14156104bc576104b76109f3565b6107af565b60048060016101000a81548160ff021916908360048111156104da57fe5b0217905550600160028111156104ec57fe5b600460009054906101000a900460ff16600281111561050757fe5b141561057a577f911ccc50880878105753dd744c54a9c1aae6382c6dbb53f13550c714ed1c3cc660405180806020018281038252600f8152602001807f537461747573203d3d2066616c7365000000000000000000000000000000000081525060200191505060405180910390a1610766565b6001600201543073ffffffffffffffffffffffffffffffffffffffff1631101561060b577f911ccc50880878105753dd744c54a9c1aae6382c6dbb53f13550c714ed1c3cc66040518080602001828103825260128152602001807f496e73756666696369656e742066756e6473000000000000000000000000000081525060200191505060405180910390a1610765565b600160000160009054906101000a900473ffffffffffffffffffffffffffffffffffffffff1673ffffffffffffffffffffffffffffffffffffffff166108fc6001600201549081150290604051600060405180830381858888f1935050505015156106dd577f911ccc50880878105753dd744c54a9c1aae6382c6dbb53f13550c714ed1c3cc66040518080602001828103825260148152602001807f4661696c656420746f2073656e642066756e647300000000000000000000000081525060200191505060405180910390a1610764565b7f6bf3c11b1865ee883abfd55375e8d23df7328b7e77de345eace36be136a6b62d6001600201543073ffffffffffffffffffffffffffffffffffffffff1631604051808381526020018281526020019250505060405180910390a17e1f46da496925da8345625c72b260a03a1cdba30455dbd8ba2d84769968669e60405160405180910390a15b5b5b6000600460006101000a81548160ff0219169083600281111561078557fe5b02179055506003600460016101000a81548160ff021916908360048111156107a957fe5b02179055505b50565b7f4451ac628daffc7479068d83fb3cb333b5f5a3e1bb2e5fbe3e18116197bfdbcc6040518080602001828103825260098152602001807f43616c6c6261636b21000000000000000000000000000000000000000000000081525060200191505060405180910390a16000600181111561082757fe5b60056000846000191660001916815260200190815260200160002060009054906101000a900460ff16600181111561085b57fe5b1415610912577f4451ac628daffc7479068d83fb3cb333b5f5a3e1bb2e5fbe3e18116197bfdbcc6040518080602001828103825260128152602001807f4d616b696e672064656c6179656420706179000000000000000000000000000081525060200191505060405180910390a1600060028111156108d657fe5b600460009054906101000a900460ff1660028111156108f157fe5b1415610904576108ff6109f3565b61090d565b61090c61044c565b5b6109a1565b6001811415610944576002600460006101000a81548160ff0219169083600281111561093a57fe5b0217905550610969565b6001600460006101000a81548160ff0219169083600281111561096357fe5b02179055505b6003600481111561097657fe5b600460019054906101000a900460ff16600481111561099157fe5b14156109a05761099f61044c565b5b5b5050565b6000600460019054906101000a900460ff16905090565b60018060000160009054906101000a900473ffffffffffffffffffffffffffffffffffffffff169080600101908060020154905083565b60007f7d7a39c6b63ca576de74f16163d0852e04317c1a0187562e85ec43d18b009ed66040518080602001828103825260338152602001807f537461747573207175657279207761732073656e742c207374616e64696e672081526020017f627920666f722074686520616e737765722e2e0000000000000000000000000081525060400191505060405180910390a17f32323200000000000000000000000000000000000000000000000000000000009050600160056000836000191660001916815260200190815260200160002060006101000a81548160ff02191690836001811115610ade57fe5b0217905550610aee8160016107b2565b50565b6000809054906101000a900473ffffffffffffffffffffffffffffffffffffffff1673ffffffffffffffffffffffffffffffffffffffff163373ffffffffffffffffffffffffffffffffffffffff16141515610b4c57600080fd5b7f4451ac628daffc7479068d83fb3cb333b5f5a3e1bb2e5fbe3e18116197bfdbcc6040518080602001828103825260108152602001807f436c6f73696e6720636f6e74726163740000000000000000000000000000000081525060200191505060405180910390a16000809054906101000a900473ffffffffffffffffffffffffffffffffffffffff1673ffffffffffffffffffffffffffffffffffffffff16ff5b7f4451ac628daffc7479068d83fb3cb333b5f5a3e1bb2e5fbe3e18116197bfdbcc6040518080602001828103825260198152602001807f436f6e7472616374205369676e656420627920506c617965720000000000000081525060200191505060405180910390a16002600460016101000a81548160ff02191690836004811115610c7557fe5b02179055506003600460016101000a81548160ff02191690836004811115610c9957fe5b0217905550565b6000809054906101000a900473ffffffffffffffffffffffffffffffffffffffff1681565b60006003806004811115610cd557fe5b600460019054906101000a900460ff166004811115610cf057fe5b141515610cfc57600080fd5b7f7d7a39c6b63ca576de74f16163d0852e04317c1a0187562e85ec43d18b009ed66040518080602001828103825260178152602001807f5175657565696e672064656c61796564207061792e2e2e00000000000000000081525060200191505060405180910390a17f31323300000000000000000000000000000000000000000000000000000000009150600060056000846000191660001916815260200190815260200160002060006101000a81548160ff02191690836001811115610dbf57fe5b0217905550610dcf8260006107b2565b505050565b6000809054906101000a900473ffffffffffffffffffffffffffffffffffffffff1673ffffffffffffffffffffffffffffffffffffffff163373ffffffffffffffffffffffffffffffffffffffff16141515610e2f57600080fd5b6000806004811115610e3d57fe5b600460019054906101000a900460ff166004811115610e5857fe5b141515610e6457600080fd5b6060604051908101604052808573ffffffffffffffffffffffffffffffffffffffff16815260200184815260200183815250600160008201518160000160006101000a81548173ffffffffffffffffffffffffffffffffffffffff021916908373ffffffffffffffffffffffffffffffffffffffff1602179055506020820151816001019080519060200190610efb929190610fae565b50604082015181600201559050507f4451ac628daffc7479068d83fb3cb333b5f5a3e1bb2e5fbe3e18116197bfdbcc60405180806020018281038252601a8152602001807f436f6e7472616374205369676e6564206279204d616e6167657200000000000081525060200191505060405180910390a16001600460016101000a81548160ff02191690836004811115610f9057fe5b021790555050505050565b600460009054906101000a900460ff1681565b828054600181600116156101000203166002900490600052602060002090601f016020900481019282601f10610fef57805160ff191683800117855561101d565b8280016001018555821561101d579182015b8281111561101c578251825591602001919060010190611001565b5b50905061102a919061102e565b5090565b61105091905b8082111561104c576000816000905550600101611034565b5090565b905600a165627a7a72305820e91b1393dbf2ca733e8edaba8279cc80b6321a52d1f58f94d4865060d702ea440029",
  "source": "pragma solidity ^0.4.18;\r\n\r\n//import \"github.com/oraclize/ethereum-api/oraclizeAPI_0.5.sol\";\r\n\r\ncontract ManagerContract {\r\n    struct Player {\r\n        address owner;\r\n        string name;\r\n        uint256 salary;\r\n    }\r\n    \r\n    enum CallbackType {\r\n        DelayedPay,\r\n        StatusCheck\r\n    }\r\n    \r\n    enum Status {\r\n        None,\r\n        False,\r\n        True\r\n    }\r\n    \r\n    enum ContractState {\r\n        Created,\r\n        ManagerSigned,\r\n        PlayerSigned,\r\n        AwaitingPayment,\r\n        Paid\r\n    }\r\n    \r\n    address public owner;\r\n    Player public player;\r\n    Status public currentStatus = Status.None;\r\n    ContractState public currentState;\r\n    \r\n    mapping (bytes32 => CallbackType) private callbacks;\r\n    \r\n    modifier requiesOwner() {\r\n        require(msg.sender == owner);\r\n        _;\r\n    }\r\n    \r\n    modifier atState(ContractState state) {\r\n        require(currentState == state);\r\n        _;\r\n    }\r\n    \r\n    function ManagerContract() public {\r\n        owner = msg.sender;\r\n        currentState = ContractState.Created;\r\n    }\r\n    \r\n    event contractSigned(string msg, uint256 salary);\r\n    event fundsTransfered(uint256 funds, uint256 balance);\r\n    event contractPaid();\r\n    event contractNotPaid(string msg);\r\n    event newQuery(string description);\r\n    event newStatus(string status);\r\n    \r\n    function signContractWithPlayer(address _owner, string _name, uint256 _salary) \r\n        public \r\n        requiesOwner\r\n        atState(ContractState.Created) \r\n    {\r\n        player = Player(_owner, _name, _salary);\r\n        newStatus(\"Contract Signed by Manager\");\r\n        \r\n        currentState = ContractState.ManagerSigned;\r\n    }\r\n    \r\n    function () \r\n        public \r\n        payable\r\n    {\r\n        if (currentState == ContractState.Paid)\r\n            revert();\r\n        \r\n        fundsTransfered(msg.value, this.balance);\r\n    }\r\n    \r\n    function signContractWithManager() \r\n        public \r\n        //atState(ContractState.ManagerSigned)\r\n    {\r\n        // if (msg.sender != player.owner)\r\n        //     revert();\r\n        \r\n        // if (this.balance < player.salary)\r\n        //     revert();\r\n    \r\n        newStatus(\"Contract Signed by Player\");\r\n        \r\n        currentState = ContractState.PlayerSigned;\r\n        currentState = ContractState.AwaitingPayment;\r\n        \r\n        //queueDelayedPay(10 seconds);\r\n    }\r\n    \r\n    function pay() \r\n        public\r\n        atState(ContractState.AwaitingPayment)\r\n    {\r\n        // if (msg.sender != owner && msg.sender != oraclize_cbAddress())\r\n        //     revert();\r\n        \r\n        if (currentStatus == Status.None) {\r\n            updateStatus();\r\n            return;\r\n        }\r\n        \r\n        // Trying to avoid paing twice by manual payment and delayed payment.\r\n        currentState = ContractState.Paid;\r\n        \r\n        if (currentStatus == Status.False) {\r\n            contractNotPaid(\"Status == false\");\r\n        } else {\r\n            if (this.balance < player.salary) {\r\n                contractNotPaid(\"Insufficient funds\");\r\n            } else {\r\n                if (!player.owner.send(player.salary)) {\r\n                    contractNotPaid(\"Failed to send funds\");\r\n                } else {\r\n                    fundsTransfered(player.salary, this.balance);\r\n                    contractPaid();\r\n                }\r\n            }\r\n        }\r\n        \r\n        currentStatus = Status.None;\r\n        currentState = ContractState.AwaitingPayment;\r\n    }\r\n    \r\n    function closeContract() \r\n        public\r\n        requiesOwner\r\n    {\r\n        newStatus(\"Closing contract\");\r\n        selfdestruct(owner);\r\n    }\r\n    \r\n    function getCurrentState() public constant returns(ContractState) {\r\n        return currentState;\r\n    }\r\n    \r\n    function callback(bytes32 myid, int result) public {\r\n        // if (msg.sender != oraclize_cbAddress()) \r\n        //     revert();\r\n            \r\n        newStatus(\"Callback!\");\r\n            \r\n        if (callbacks[myid] == CallbackType.DelayedPay) {\r\n            newStatus(\"Making delayed pay\");\r\n            \r\n            if (currentStatus == Status.None)\r\n                updateStatus();\r\n            else\r\n                pay();\r\n        } else { \r\n            // CallbackType.StatusCheck.\r\n            // newStatus(result);\r\n            \r\n            if (result == 1)\r\n                currentStatus = Status.True;\r\n            else\r\n                currentStatus = Status.False;\r\n                \r\n            if (currentState == ContractState.AwaitingPayment) {\r\n                pay();\r\n            }\r\n        }\r\n    }\r\n    \r\n    function updateStatus() \r\n        public \r\n        payable \r\n    {\r\n        newQuery(\"Status query was sent, standing by for the answer..\");\r\n        \r\n        //bytes32 queryId = oraclize_query(\"URL\", \"json(http://test-blockchain.getsandbox.com/state).state\");\r\n        bytes32 queryId = \"222\";\r\n        callbacks[queryId] = CallbackType.StatusCheck;\r\n        callback(queryId, 1);\r\n    }\r\n    \r\n    function queueDelayedPay(uint _delay) \r\n        public \r\n        payable \r\n        atState(ContractState.AwaitingPayment)\r\n    {\r\n        newQuery(\"Queueing delayed pay...\");\r\n        \r\n        //bytes32 queryId = oraclize_query(_delay, \"URL\", \"\");\r\n        bytes32 queryId = \"123\";\r\n        callbacks[queryId] = CallbackType.DelayedPay;\r\n        callback(queryId, 0);\r\n    }\r\n}",
  "sourcePath": "D:\\Work\\dreamteam\\game\\contracts\\ManagerContract.sol",
  "compiler": {
    "name": "solc",
    "version": "0.4.18+commit.9cf6e910.Emscripten.clang"
  },
  "schemaVersion": "1.0.1",
  "updatedAt": "2018-01-11T13:49:51.952Z"
}